:100000000C9472000C948B000C948B000C948B005D
:100010000C948B000C948B000C948B000C948B0034
:100020000C948B000C948B000C948B000C948B0024
:100030000C948B000C948B000C948B000C948B0014
:100040000C948B000C948B000C948B000C948B0004
:100050000C948B000C948B000C948B000C948B00F4
:100060000C948B000C948B000C948B000C948B00E4
:100070000C948B000C948B000C948B000C948B00D4
:100080000C948B000C948B000C948B000C948B00C4
:100090000C948B000C948B000C948B000C948B00B4
:1000A0000C948B000C948B000C948B000C948B00A4
:1000B0000C948B000C948B000C948B000C948B0094
:1000C0000C948B000C948B000C948B000C948B0084
:1000D0000C948B000C948B000C948B000C948B0074
:1000E0000C948B0011241FBECFEFD1E2DEBFCDBF39
:1000F00000E00CBF12E0A0E0B2E0E0E8FEE000E0CB
:100100000BBF02C007900D92A230B107D9F70E9431
:100110001E040C943E070C940000CF93DF93CDB7E0
:10012000DEB784E290E0FC01208184E290E0286068
:10013000FC01208384E290E0FC01208184E290E0D5
:100140002E7FFC01208384E290E0FC01208184E288
:1001500090E0206FFC01208385E290E0FC0120818B
:1001600085E290E0206FFC0120830000DF91CF91B9
:1001700008950F931F93CF93DF93CDB7DEB7C45984
:10018000D1090FB6F894DEBF0FBECDBF85E290E077
:10019000DC012C9185E290E02860FC01208380E066
:1001A00090E0A0E2B1E48D839E83AF83B8872BEA11
:1001B0003AEA4AEA50E46D817E818F8198850E94F7
:1001C000D10661966CAF7DAF8EAF9FAF61976196A0
:1001D0008CAD9DADAEADBFAD619789879A87AB877A
:1001E000BC8720E030E040E850E46D817E818F8163
:1001F00098850E94D10665966CAF7DAF8EAF9FAF9C
:10020000659765968CAD9DADAEADBFAD65978D879D
:100210009E87AF87B88B20E030E040E85FE36985D8
:100220007A858B859C850E94B10588231CF481E02A
:10023000898BFFC020E03FEF4FE757E46D857E8557
:100240008F8598890E94CC06882309F00CF4B6C0EB
:1002500020E030E04AE754E46D817E818F8198850B
:100260000E94B60569966CAF7DAF8EAF9FAF699760
:1002700069968CAD9DADAEADBFAD69978A8B9B8BFA
:10028000AC8BBD8B20E030E04AE755E46A897B897E
:100290008C899D890E94D1066D966CAF7DAF8EAF23
:1002A0009FAF6D976D968CAD9DADAEADBFAD6D97AB
:1002B0008E8B9F8BA88FB98F20E030E040E85FE302
:1002C0006E897F89888D998D0E94B10588232CF4D1
:1002D00081E090E09B8F8A8F66C020E03FEF4FE780
:1002E00057E46E897F89888D998D0E94CC0688237A
:1002F00009F00CF446C020E030E040E251E46A89A5
:100300007B898C899D890E94D106A1966CAF7DAFB7
:100310008EAF9FAFA197A1968CAD9DADAEADBFAD99
:10032000A19729968CAF9DAFAEAFBFAF2997299605
:100330006CAD7DAD8EAD9FAD29970E942806A59628
:100340006CAF7DAF8EAF9FAFA597A396AEADBFAD9F
:10035000A397BB8FAA8F10C080E991E09D8F8C8FEF
:100360008C8D9D8D0197F1F79D8F8C8F00008A8D6C
:100370009B8D01979B8F8A8F8A8D9B8D009761F74C
:1003800058C06E897F89888D998D0E942806A9960C
:100390006CAF7DAF8EAF9FAFA997A796EEADFFADC7
:1003A000A797FB8FEA8F8A8D9B8D9F8F8E8F8E8D67
:1003B0009F8D0197F1F79F8F8E8F3BC020E030E03B
:1003C0004FE753E469857A858B859C850E94CC062E
:1003D0008823F9F0F4F06D857E858F8598890E94D9
:1003E0002806AD966CAF7DAF8EAF9FAFAD97AB9645
:1003F0008EAD9FADAB9799A388A388A199A19BA32C
:100400008AA38AA19BA10197F1F79BA38AA300006D
:1004100017C069857A858B859C850E942806E196A0
:100420006CAF7DAF8EAF9FAFE197AE969FADAE97AD
:10043000998B89898CA38CA18A95F1F78CA30000F4
:1004400085E290E0DC012C9185E290E0277FFC01C1
:10045000208385E290E0DC012C9185E290E02F770B
:10046000FC0120831A8219821C821B821A82198243
:10047000CBC180E090E0A0E8BFE38DA39EA3AFA333
:10048000B8A72BEA3AEA4AEA50E46DA17EA18FA10F
:1004900098A50E94D106E5966CAF7DAF8EAF9FAF59
:1004A000E597E5968CAD9DADAEADBFADE59789A75F
:1004B0009AA7ABA7BCA720E030E040E850E46DA1CC
:1004C0007EA18FA198A50E94D106E9966CAF7DAF61
:1004D0008EAF9FAFE997E9968CAD9DADAEADBFAD48
:1004E000E9978DA79EA7AFA7B8AB20E030E040E822
:1004F0005FE369A57AA58BA59CA50E94B105882319
:100500001CF481E089AB2CC120E03FEF4FE757E4BA
:100510006DA57EA58FA598A90E94CC06882309F019
:100520000CF4C6C020E030E04AE754E46DA17EA19F
:100530008FA198A50E94B605ED966CAF7DAF8EAFEA
:100540009FAFED97ED968CAD9DADAEADBFADED9788
:100550008AAB9BABACABBDAB20E030E04AE755E4E7
:100560006AA97BA98CA99DA90E94D106C358DF4F17
:10057000688379838A839B83CD57D040C358DF4FEC
:1005800088819981AA81BB81CD57D0408EAB9FAB2A
:10059000A8AFB9AF20E030E040E85FE36EA97FA9E3
:1005A00088AD99AD0E94B10588232CF481E090E0DC
:1005B0009BAF8AAF72C020E03FEF4FE757E46EA9D0
:1005C0007FA988AD99AD0E94CC06882309F00CF470
:1005D0004EC020E030E040E251E46AA97BA98CA93A
:1005E0009DA90E94D106CF57DF4F688379838A8304
:1005F0009B83C158D040CF57DF4F88819981AA8112
:10060000BB81C158D0402D968CAF9DAFAEAFBFAF70
:100610002D972D966CAD7DAD8EAD9FAD2D970E9423
:100620002806CB57DF4F688379838A839B83C5581D
:10063000D040CB57DF4FA881B981C558D040BBAF60
:10064000AAAF10C080E991E09DAF8CAF8CAD9DAD9D
:100650000197F1F79DAF8CAF00008AAD9BAD01977C
:100660009BAF8AAF8AAD9BAD009761F779C06EA949
:100670007FA988AD99AD0E942806C757DF4F6883D0
:1006800079838A839B83C958D040C757DF4FE8815D
:10069000F981C958D040FBAFEAAF8AAD9BAD9FAF9F
:1006A0008EAF8EAD9FAD0197F1F79FAF8EAF58C063
:1006B00020E030E04FE753E469A57AA58BA59CA51F
:1006C0000E94CC068823C1F1BCF18E01005C1F4F53
:1006D0006DA57EA58FA598A90E942806C357DF4F58
:1006E000688379838A839B83CD58D040C357DF4F7B
:1006F000E881F981CD58D040D801ED93FC93CE012B
:100700008E5B9F4F9E01205C3F4FD9012D913C9104
:10071000FC0131832083CE018E5B9F4FDC018D91E4
:100720009C9111970197F1F79E012E5B3F4FF901C4
:1007300091838083000028C069A57AA58BA59CA51C
:100740000E942806CF56DF4F688379838A839B8374
:10075000C159D040CF56DF4FF881C159D040F9ABD5
:10076000CE018C5B9F4F29A9DC012C93CE018C5BC1
:100770009F4FFC018081282F2A95F1F7CE018C5BD9
:100780009F4FDC012C93000085E290E0FC0120816A
:1007900085E290E02F7BDC012C9383E290E0FC016A
:1007A0008081882F90E081709927009741F08B819C
:1007B0009C81009721F481E090E09C838B838B8166
:1007C0009C81009729F089819A8101969A83898377
:1007D00083E290E0DC018C91882F90E08170992772
:1007E000009791F48B819C81009771F01C821B8291
:1007F00085E290E0FC01208185E290E02F7DDC0124
:100800002C9389819A810EC08091000290910102FF
:1008100029813A81281739070CF42BCE80910002E8
:1008200090910102CC56DF4F0FB6F894DEBF0FBE99
:10083000CDBFDF91CF911F910F910895CF93DF939B
:10084000CDB7DEB7C854D1090FB6F894DEBF0FBEDE
:10085000CDBF0E948D001A8219820E94B9009A832E
:10086000898389819A812AE330E0B9010E94890550
:10087000CB019C838B838B819C818D31910509F009
:1008800054F485E290E0DC012C9185E290E02F7E2B
:10089000FC01208309C085E290E0DC012C9185E217
:1008A00090E02061FC01208380E090E0AAEFB3E4B7
:1008B0008B8B9C8BAD8BBE8B20E030E04AE755E400
:1008C0006B897C898D899E890E94D10669A77AA748
:1008D0008BA79CA789A59AA5ABA5BCA58F8B988F44
:1008E000A98FBA8F20E030E040E85FE36F89788D10
:1008F000898D9A8D0E94B10588232CF481E090E0C7
:100900009C8F8B8F55C020E03FEF4FE757E46F89F6
:10091000788D898D9A8D0E94CC068823D9F1D4F1E7
:1009200020E030E040E251E46B897C898D899E892A
:100930000E94D1066DA77EA78FA798AB8DA59EA517
:10094000AFA5B8A98DA39EA3AFA3B8A76DA17EA1A3
:100950008FA198A50E94280669AB7AAB8BAB9CABA4
:10096000A9A9BAA9BC8FAB8F10C080E991E09E8F76
:100970008D8F8D8D9E8D0197F1F79E8F8D8F00004D
:100980008B8D9C8D01979C8F8B8F8B8D9C8D009771
:1009900061F719C06F89788D898D9A8D0E9428061C
:1009A0006DAB7EAB8FAB98AFEDA9FEA9FC8FEB8F43
:1009B0008B8D9C8D98A38F8F8F8D98A10197F1F7C8
:1009C00098A38F8F000085E290E0DC012C9185E2F6
:1009D00090E0206EFC01208380E090E0AAEFB3E479
:1009E0008D839E83AF83B88720E030E04AE755E4EB
:1009F0006D817E818F8198850E94D10669AF7AAF23
:100A00008BAF9CAF89AD9AADABADBCAD89879A87F2
:100A1000AB87BC8720E030E040E85FE369857A85FA
:100A20008B859C850E94B10588232CF481E090E0A1
:100A30009E878D8762C020E03FEF4FE757E46985CE
:100A40007A858B859C850E94CC06882309F00CF45E
:100A500042C020E030E040E251E46D817E818F8130
:100A600098850E94D10621966CAF7DAF8EAF9FAF67
:100A7000219721968CAD9DADAEADBFAD219789A3D9
:100A80009AA3ABA3BCA369A17AA18BA19CA10E944C
:100A9000280625966CAF7DAF8EAF9FAF2597239626
:100AA000AEADBFAD2397BE87AD8710C080E991E0A2
:100AB000988B8F878F8598890197F1F7988B8F870F
:100AC00000008D859E8501979E878D878D859E85EB
:100AD000009761F71DC069857A858B859C850E948A
:100AE000280629966CAF7DAF8EAF9FAF29972796CA
:100AF000EEADFFAD2797FE87ED878D859E859A8B9E
:100B0000898B89899A890197F1F79A8B898B0000E3
:100B1000A2CE97FB072E16F4009407D077FD09D0DC
:100B20000E949D0507FC05D03EF4909581959F4F4E
:100B30000895709561957F4F0895AA1BBB1B51E1E5
:100B400007C0AA1FBB1FA617B70710F0A61BB70B3D
:100B5000881F991F5A95A9F780959095BC01CD01E2
:100B600008950E94570608F481E008950E94CA057E
:100B70000C9492060E948B0658F00E94840640F066
:100B800029F45F3F29F00C947B0651110C94C606A2
:100B90000C9481060E94A30668F39923B1F35523B0
:100BA00091F3951B550BBB27AA2762177307840780
:100BB00038F09F5F5F4F220F331F441FAA1FA9F316
:100BC00035D00E2E3AF0E0E832D091505040E69504
:100BD000001CCAF72BD0FE2F29D0660F771F881F65
:100BE000BB1F261737074807AB07B0E809F0BB0B58
:100BF000802DBF01FF2793585F4F3AF09E3F51056C
:100C000078F00C947B060C94C6065F3FE4F3983EA4
:100C1000D4F3869577956795B795F7959F5FC9F754
:100C2000880F911D9695879597F90895E1E0660FD5
:100C3000771F881FBB1F621773078407BA0720F04E
:100C4000621B730B840BBA0BEE1F88F7E0950895B7
:100C50000E94AB0688F09F5798F0B92F9927B7519B
:100C6000B0F0E1F0660F771F881F991F1AF0BA9550
:100C7000C9F714C0B13091F00E94C506B1E00895E3
:100C80000C94C506672F782F8827B85F39F0B93FD5
:100C9000CCF3869577956795B395D9F73EF4909503
:100CA0008095709561957F4F8F4F9F4F0895990F55
:100CB0000008550FAA0BE0E8FEEF16161706E80726
:100CC000F907C0F012161306E407F50798F0621B47
:100CD000730B840B950B39F40A2661F0232B242B1C
:100CE000252B21F408950A2609F4A140A6958FEF3B
:100CF000811D811D089597F99F6780E870E060E08D
:100D000008959FEF80EC089500240A9416161706A4
:100D100018060906089500240A94121613061406EC
:100D200005060895092E0394000C11F4882352F04F
:100D3000BB0F40F4BF2B11F460FF04C06F5F7F4F07
:100D40008F4F9F4F089557FD9058440F551F59F0EE
:100D50005F3F71F04795880F97FB991F61F09F3FA8
:100D600079F087950895121613061406551FF2CFD1
:100D70004695F1DF08C0161617061806991FF1CF21
:100D800086957105610508940895E894BB27662748
:100D90007727CB0197F908950E94570608F48FEF43
:100DA00008950E94E4060C9492060E94840638F08E
:100DB0000E948B0620F0952311F00C947B060C9476
:100DC000810611240C94C6060E94A30670F3959F19
:100DD000C1F3950F50E0551F629FF001729FBB2732
:100DE000F00DB11D639FAA27F00DB11DAA1F649FCE
:100DF0006627B00DA11D661F829F2227B00DA11D81
:100E0000621F739FB00DA11D621F839FA00D611D06
:100E1000221F749F3327A00D611D231F849F600D27
:100E2000211D822F762F6A2F11249F5750409AF050
:100E3000F1F088234AF0EE0FFF1FBB1F661F771FDC
:100E4000881F91505040A9F79E3F510580F00C94A7
:100E50007B060C94C6065F3FE4F3983ED4F3869578
:100E600077956795B795F795E7959F5FC1F7FE2B47
:100E7000880F911D9695879597F90895F894FFCF5F
:020E8000F46517
:00000001FF
