:100000000C9472000C9495000C94B0000C94CA00EF
:100010000C9493000C9493000C9493000C94930014
:100020000C9493000C9493000C9493000C94930004
:100030000C9493000C9493000C9493000C949300F4
:100040000C9493000C9493000C9493000C949300E4
:100050000C9493000C9493000C9493000C949300D4
:100060000C9493000C9493000C9493000C949300C4
:100070000C9493000C9493000C9493000C949300B4
:100080000C9493000C9493000C9493000C949300A4
:100090000C9493000C9493000C9493000C94930094
:1000A0000C9493000C9493000C9493000C94930084
:1000B0000C9493000C9493000C9493000C94930074
:1000C0000C9493000C9493000C9493000C94930064
:1000D0000C9493000C9493000C9493000C94930054
:1000E0000C94930011241FBECFEFD1E2DEBFCDBF31
:1000F00000E00CBF12E0A0E0B2E0E4E6F4E000E0D3
:100100000BBF02C007900D92A430B107D9F722E0CF
:10011000A4E0B2E001C01D92A630B207E1F70E9450
:10012000E3010C9430020C9400001F920F920FB662
:100130000F9211242F938F939F932FEF89EF90E0CD
:10014000215080409040E1F700C00000279A2F988E
:100150009F918F912F910F900FBE0F901F90189528
:100160001F920F920FB60F9211242F938F939F938C
:100170002FEF89EF90E0215080409040E1F700C0E0
:1001800000002F9A9F918F912F910F900FBE0F908B
:100190001F9018951F920F920FB60F9211242F9354
:1001A0008F939F932B9908C09F918F912F910F90C0
:1001B0000FBE0F901F9018952FEF80E792E021500F
:1001C00080409040E1F700C00000279A85B1805838
:1001D00085B9E8CF5298539A5B9AEA9AE9E6F0E03B
:1001E0008081806380830895EAE0F1E08081886007
:1001F0008083259A689A92E89093800089E18093A1
:100200008100909320018093210180ED97E09093ED
:100210008900809388009093290180932801239A74
:100220008081826080832B98EBE0F1E080818D7F7C
:1002300080839A9AA29887B187B981B181B90895CC
:10024000229A2098EAE0F1E0808181608083EBE0EF
:10025000F1E08081816080831092B0008BEF809309
:10026000B10087E38093B20008957894E89AE9E6B4
:10027000F0E0808182608083E99A80818860808359
:10028000509881B1806581B91698149A519881B1BE
:10029000856081B91298109A089526B1207440B1F2
:1002A00076B166B130B1387050B162FB882780F901
:1002B00090E070FF02C081E090E031110EC051FD6E
:1002C0000CC021110DC047FD0BC08130910579F0A4
:1002D000029719F18AEF9FEF05C082E090E0F1CF1D
:1002E00088EA91E6909387008093860008C08AE6AA
:1002F00097E1909387008093860088EA91E6909337
:100300002701809326012FEF80E792E02150804063
:100310009040E1F700C00000089588EA91E69093CC
:100320008700809386008AE697E1E9CF2A9A85E3E1
:100330008A95F1F700002A98E0910002F0910102FD
:1003400070E060E090E080E050E040E021E030E0EC
:10035000009741F4B1E0A0E06115710509F4B0E047
:100360002B2F3A2F2E173F0714F0CF01089518991D
:1003700003C04115510519F0019641E050E018996C
:1003800003C04115510591F76F5F7F4FDFCF0E948A
:1003900096016AE370E00E9408026A3071054CF42D
:1003A0002B9A80910B01826080930B01279A2F98E2
:1003B00008956E307105E4F32B9880910B018D7FC9
:1003C00080930B01F5CF0E94EA002FEF87EA91E6B8
:1003D000215080409040E1F700C000000E94F400EE
:1003E0000E9420010E943501809102029091030237
:1003F0009093050280930402D7E3C1E00E944D016F
:10040000B89BFCCFD093B200C7BB0E94C701F6CF08
:1004100097FB072E16F4009407D077FD09D00E94B1
:100420001C0207FC05D03EF4909581959F4F0895DE
:10043000709561957F4F0895AA1BBB1B51E107C0C2
:10044000AA1FBB1FA617B70710F0A61BB70B881F64
:10045000991F5A95A9F780959095BC01CD010895F3
:04046000F894FFCF3E
:040464000807204E17
:00000001FF
