:100000000C9472000C9493000C9493000C94930045
:100010000C9493000C9493000C9493000C94930014
:100020000C9493000C9493000C9493000C94930004
:100030000C9493000C9493000C9493000C949300F4
:100040000C9493000C9493000C9493000C949300E4
:100050000C9493000C9493000C9493000C949300D4
:100060000C9493000C9493000C9493000C949300C4
:100070000C9493000C9493000C9493000C949300B4
:100080000C9493000C9493000C9493000C949300A4
:100090000C9493000C9493000C9493000C94930094
:1000A0000C9493000C9493000C9493000C94930084
:1000B0000C9493000C9493000C9493000C94930074
:1000C0000C9493000C9493000C9493000C94930064
:1000D0000C9493000C9493000C9493000C94930054
:1000E0000C94930011241FBECFEFD1E2DEBFCDBF31
:1000F00000E00CBF12E0A0E0B2E0EEE6F3E000E0CA
:100100000BBF02C007900D92A430B107D9F722E0CF
:10011000A4E0B2E001C01D92A630B207E1F70E9450
:100120006C010C94B5010C940000EAE0F1E08081D0
:1001300088608083259A689A92E89093800089E18C
:1001400080938100909320018093210180ED97E0BE
:1001500090938900809388009093290180932801CF
:10016000239A8081826080832B98EBE0F1E080818C
:100170008D7F80839A9AA29887B187B981B181B91E
:100180000895229A2098EAE0F1E0808181608083DE
:10019000EBE0F1E08081816080831092B0008BEF12
:1001A0008093B10087E38093B200089526B1207454
:1001B00040B176B166B130B1387050B162FB88277A
:1001C00080F990E070FF02C081E090E031110EC034
:1001D00051FD0CC021110DC047FD0BC081309105B0
:1001E00079F0029719F18AEF9FEF05C082E090E065
:1001F000F1CF88EA91E6909387008093860008C04B
:1002000082E59BE1909387008093860088EA91E6DF
:1002100090932701809326012FEF80E792E02150F1
:1002200080409040E1F700C00000089588EA91E620
:10023000909387008093860082E59BE1E9CF2A9A1C
:1002400085E38A95F1F700002A98E0910002F09189
:10025000010270E060E090E080E050E040E021E0EA
:1002600030E0009741F4B1E0A0E06115710509F4B8
:10027000B0E02B2F3A2F2E173F0714F0CF0108952F
:10028000189903C04115510519F0019641E050E05D
:10029000189903C04115510591F76F5F7F4FDFCF6C
:1002A0000E941F016AE370E00E948D016A307105AF
:1002B0004CF42B9A80910B01826080930B01279A5A
:1002C0002F9808956E307105E4F32B9880910B01FF
:1002D0008D7F80930B01F5CF2FEF87EA91E62150B8
:1002E00080409040E1F700C000000E9495000E940D
:1002F000C1008091020290910302909305028093C5
:100300000402D7E3C1E00E94D600B89BFCCFD09393
:10031000B200C7BB0E945001F6CF97FB072E16F420
:10032000009407D077FD09D00E94A10107FC05D0F9
:100330003EF4909581959F4F0895709561957F4FFC
:100340000895AA1BBB1B51E107C0AA1FBB1FA6171C
:10035000B70710F0A61BB70B881F991F5A95A9F76E
:0E03600080959095BC01CD010895F894FFCFD3
:04036E000807204E0E
:00000001FF
