:100000000C9472000C9493000C9493000C94930045
:100010000C9493000C9493000C9493000C94930014
:100020000C9493000C9493000C9493000C94930004
:100030000C9493000C9493000C9493000C949300F4
:100040000C9493000C9493000C9493000C949300E4
:100050000C9493000C9493000C9493000C949300D4
:100060000C9493000C9493000C9493000C949300C4
:100070000C9493000C9493000C9493000C949300B4
:100080000C9493000C9493000C9493000C949300A4
:100090000C9493000C9493000C9493000C94930094
:1000A0000C9493000C9493000C9493000C94930084
:1000B0000C9493000C9493000C9493000C94930074
:1000C0000C9493000C9493000C9493000C94930064
:1000D0000C9493000C9493000C9493000C94930054
:1000E0000C94930011241FBECFEFD1E2DEBFCDBF31
:1000F00000E00CBF12E0A0E0B2E0EEEDF2E000E0C4
:100100000BBF02C007900D92A430B107D9F722E0CF
:10011000A4E0B2E001C01D92A630B207E1F70E9450
:100120004E010C946D010C940000EAE0F1E0808136
:1001300088608083259A689A92E89093800089E18C
:1001400080938100909320018093210180ED97E0BE
:1001500090938900809388009093290180932801CF
:10016000239A8081826080832B98EBE0F1E080818C
:100170008D7F80839A9AA29887B187B981B181B91E
:100180000895229A2098EAE0F1E0808181608083DE
:10019000EBE0F1E08081816080831092B0008BEF12
:1001A0008093B10087E38093B200089526B1207454
:1001B00040B136B130B1307276B166B150B1E0B114
:1001C00062FB882780F990E070FF02C081E090E038
:1001D00031110EC053FD0CC021110DC047FD0BC0E5
:1001E0008130910579F00297D1F08AE191ED05C057
:1001F00082E090E0F1CF80E29EE4909387008093CC
:10020000860008C08AE191ED909387008093860074
:1002100080E29EE49093270180932601089580E276
:100220009EE490938700809386008AE191EDF2CF5F
:100230002A9A85E38A95F1F700002A9840910002F6
:100240005091010290E080E030E020E084179507B3
:1002500014F0CA010DC0189903C02115310519F019
:10026000019621E030E01899F1CF2115310571F3A5
:1002700008950E941801843492404CF42B9A809186
:100280000B01826080930B01279A2F9808952B9879
:1002900080910B018D7F80930B01F8CF2FEF87EAC0
:1002A00091E6215080409040E1F700C000000E949C
:1002B00095000E94C10080910202909103029093E8
:1002C000050280930402D7E3C1E00E94D600B89BE8
:0E02D000FCCFD093B200C7BBF8CFF894FFCF9D
:0402DE000807204E9F
:00000001FF
