:100000000C9472000C947E000C947E000C947E0084
:100010000C947E000C947E000C947E000C947E0068
:100020000C947E000C947E000C947E000C947E0058
:100030000C947E000C947E000C947E000C947E0048
:100040000C947E000C94FE010C9426020C947E000D
:100050000C94C4010C947E000C947E000C947E00E1
:100060000C947E000C947E000C947E000C947E0018
:100070000C947E000C947E000C947E000C947E0008
:100080000C947E000C947E000C947E000C947E00F8
:100090000C947E000C947E000C947E000C947E00E8
:1000A0000C947E000C947E000C947E000C947E00D8
:1000B0000C947E000C947E000C947E000C947E00C8
:1000C0000C947E000C947E000C947E000C947E00B8
:1000D0000C947E000C947E000C947E000C947E00A8
:1000E0000C947E0011241FBECFEFD1E2DEBFCDBF46
:1000F00000E00CBF0E948A000C9431050C940000B3
:10010000CF93DF93CDB7DEB70E944E020000DF91A0
:10011000CF910895CF93DF93CDB7DEB7C454D10903
:100120000FB6F894DEBF0FBECDBF0E94800084E6FC
:100130000E94840280E090E0AAE7B4E48F87988B65
:10014000A98BBA8B20E030E04AE755E46F857889C7
:1001500089899A890E94C4046DA37EA38FA398A75E
:100160008DA19EA1AFA1B8A58B8B9C8BAD8BBE8BB7
:1001700020E030E040E85FE36B897C898D899E89CF
:100180000E94D90388232CF481E090E0988F8F8B14
:1001900055C020E03FEF4FE757E46B897C898D899C
:1001A0009E890E94BF048823D9F1D4F120E030E079
:1001B00040E251E46F85788989899A890E94C40454
:1001C00069A77AA78BA79CA789A59AA5ABA5BCA56B
:1001D00089A39AA3ABA3BCA369A17AA18BA19CA17B
:1001E0000E94DE036DA77EA78FA798ABADA5BEA525
:1001F000B88FAF8B10C080E991E09A8F898F898D7D
:100200009A8D0197F1F79A8F898F00008F89988DC9
:100210000197988F8F8B8F89988D009761F719C000
:100220006B897C898D899E890E94DE0369AB7AABDC
:100230008BAB9CAB89A99AA9988F8F8B8F89988D4E
:100240009C8F8B8F8B8D9C8D0197F1F79C8F8B8F63
:1002500000008CE90E94840280E090E4ACE1B6E406
:1002600089839A83AB83BC8320E030E04AE755E47E
:1002700069817A818B819C810E94C4046DAB7EABC5
:100280008FAB98AF8DA99EA9AFA9B8AD8D839E8382
:10029000AF83B88720E030E040E85FE36D817E8186
:1002A0008F8198850E94D90388232CF481E090E007
:1002B0009A8789875CC020E03FEF4FE757E46D8164
:1002C0007E818F8198850E94BF04882309F00CF4F9
:1002D0003CC020E030E040E251E469817A818B81CA
:1002E0009C810E94C40469AF7AAF8BAF9CAF89AD8B
:1002F0009AADABADBCAD8D8F9E8FAF8FB8A36D8D1A
:100300007E8D8F8D98A10E94DE0321966CAF7DAF0C
:100310008EAF9FAF2197ADADBEADBA87A98710C094
:1003200080E991E09C878B878B859C850197F1F70D
:100330009C878B87000089859A8501979A87898792
:1003400089859A85009761F71DC06D817E818F81B7
:1003500098850E94DE0325966CAF7DAF8EAF9FAF70
:10036000259723968EAD9FAD23979A878987898598
:100370009A859E878D878D859E850197F1F79E874B
:100380008D8700000000D3CE1F920F920FB60F9200
:1003900011240BB60F922F933F938F939F93EF935C
:1003A000FF93CF93DF93CDB7DEB784E890E024E2EC
:1003B00034E6FC01318320838EE290E0FC01208151
:1003C0008EE290E02860FC01208382E091E0FC0155
:1003D000208182E091E02860FC0120830000DF9111
:1003E000CF91FF91EF919F918F913F912F910F901E
:1003F0000BBE0F900FBE0F901F9018951F920F927B
:100400000FB60F9211240BB60F922F938F939F93D9
:10041000EF93FF93CF93DF93CDB7DEB78EE290E0FB
:10042000FC0120818EE290E0277FFC012083000008
:10043000DF91CF91FF91EF919F918F912F910F902D
:100440000BBE0F900FBE0F901F9018951F920F922A
:100450000FB60F9211240BB60F922F938F939F9389
:10046000EF93FF93CF93DF93CDB7DEB782E091E0B8
:10047000FC01208182E091E0277FFC0120830000C5
:10048000DF91CF91FF91EF919F918F912F910F90DD
:100490000BBE0F900FBE0F901F901895CF93DF9358
:1004A000CDB7DEB78DE290E0FC0120818DE290E0D7
:1004B0002860FC01208381E091E0FC01208181E043
:1004C00091E02860FC01208380E890E0FC0110822C
:1004D00081E890E022E0FC0120838FE690E027E0B5
:1004E000FC01208384E890E024E234E6FC013183BF
:1004F000208380E00E94840280E00E94F8027894C9
:100500000000DF91CF9108950F931F93CF93DF9356
:10051000CDB7DEB76D970FB6F894DEBF0FBECDBF77
:10052000898389818C390CF457C08981843611F014
:100530000CF052C08981282F880F330B440B550BC8
:100540002E873F87488B598B6E857F85888999894F
:100550000E940F046A837B838C839D8320E030E0BC
:1005600040E251E46A817B818C819D810E94C404B8
:100570006A8B7B8B8C8B9D8B8A899B89AC89BD898F
:100580008E839F83A887B98720E038EB4FED56E430
:100590006E817F81888599850E946D036E8B7F8B2C
:1005A000888F998F2E893F89488D598D2A873B875F
:1005B0004C875D8708E810E06A857B858C859D8582
:1005C0000E94DE036A8F7B8F8C8F9D8F8A8D9B8D1F
:1005D000D80111969C938E9300006D960FB6F894F7
:1005E000DEBF0FBECDBFDF91CF911F910F91089558
:1005F0000F931F93CF93DF93CDB7DEB76D970FB6F1
:10060000F894DEBF0FBECDBF898389818C390CF48D
:1006100057C08981843611F00CF052C08981282F8F
:10062000880F330B440B550B2E873F87488B598B14
:100630006E857F85888999890E940F046A837B83F0
:100640008C839D8320E030E040E251E46A817B812D
:100650008C819D810E94C4046A8B7B8B8C8B9D8BCB
:100660008A899B89AC89BD898E839F83A887B98736
:1006700020E038EB4FED56E46E817F8188859985C7
:100680000E946D036E8B7F8B888F998F2E893F8997
:10069000488D598D2A873B874C875D870AE810E093
:1006A0006A857B858C859D850E94DE036A8F7B8FA2
:1006B0008C8F9D8F8A8D9B8DD80111969C938E93E4
:1006C00000006D960FB6F894DEBF0FBECDBFDF9170
:1006D000CF911F910F9108955058BB27AA270E94D0
:1006E00084030C9485040E94770438F00E947E04F1
:1006F00020F039F49F3F19F426F40C9474040EF49E
:10070000E095E7FB0C946E04E92F0E94960458F3E1
:10071000BA17620773078407950720F079F4A6F5E6
:100720000C94B8040EF4E0950B2EBA2FA02D0B01FB
:10073000B90190010C01CA01A0011124FF27591B26
:1007400099F0593F50F4503E68F11A16F040A22F2C
:10075000232F342F4427585FF3CF4695379527959D
:10076000A795F0405395C9F77EF41F16BA0B620B9C
:10077000730B840BBAF09150A1F0FF0FBB1F661FE3
:10078000771F881FC2F70EC0BA0F621F731F841F26
:1007900048F4879577956795B795F7959E3F08F04C
:1007A000B0CF9395880F08F09927EE0F979587950E
:1007B00008950E944A0408F481E008950E949E046E
:1007C00088F09F5798F0B92F9927B751B0F0E1F012
:1007D000660F771F881F991F1AF0BA95C9F714C0C2
:1007E000B13091F00E94B804B1E008950C94B804BF
:1007F000672F782F8827B85F39F0B93FCCF38695FB
:1008000077956795B395D9F73EF490958095709557
:1008100061957F4F8F4F9F4F0895E89409C097FBD4
:100820003EF490958095709561957F4F8F4F9F4FC7
:100830009923A9F0F92F96E9BB279395F69587950B
:1008400077956795B795F111F8CFFAF4BB0F11F4CE
:1008500060FF1BC06F5F7F4F8F4F9F4F16C0882375
:1008600011F096E911C0772321F09EE8872F762FAB
:1008700005C0662371F096E8862F70E060E02AF0EC
:100880009A95660F771F881FDAF7880F96958795D8
:1008900097F90895990F0008550FAA0BE0E8FEEFAD
:1008A00016161706E807F907C0F012161306E40734
:1008B000F50798F0621B730B840B950B39F40A262D
:1008C00061F0232B242B252B21F408950A2609F40B
:1008D000A140A6958FEF811D811D089597F99F670F
:1008E00080E870E060E008959FEF80EC08950024B8
:1008F0000A941616170618060906089500240A9485
:1009000012161306140605060895092E0394000C0A
:1009100011F4882352F0BB0F40F4BF2B11F460FF99
:1009200004C06F5F7F4F8F4F9F4F089557FD9058C2
:10093000440F551F59F05F3F71F04795880F97FBA3
:10094000991F61F09F3F79F087950895121613065D
:100950001406551FF2CF4695F1DF08C0161617068C
:100960001806991FF1CF86957105610508940895C1
:10097000E894BB2766277727CB0197F908950E9453
:100980004A0408F48FEF08950E94D7040C9485045C
:100990000E94770438F00E947E0420F0952311F025
:1009A0000C946E040C94740411240C94B9040E94E9
:1009B000960470F3959FC1F3950F50E0551F629F09
:1009C000F001729FBB27F00DB11D639FAA27F00DA8
:1009D000B11DAA1F649F6627B00DA11D661F829FCF
:1009E0002227B00DA11D621F739FB00DA11D621FB4
:1009F000839FA00D611D221F749F3327A00D611DD1
:100A0000231F849F600D211D822F762F6A2F1124B2
:100A10009F5750409AF0F1F088234AF0EE0FFF1FE5
:100A2000BB1F661F771F881F91505040A9F79E3F3C
:100A3000510580F00C946E040C94B9045F3FE4F30C
:100A4000983ED4F3869577956795B795F795E79592
:100A50009F5FC1F7FE2B880F911D9695879597F99B
:060A60000895F894FFCF99
:00000001FF
