:100000000C9472000C948B000C948B000C948B005D
:100010000C948B000C948B000C948B000C948B0034
:100020000C948B000C948B000C948B000C948B0024
:100030000C948B000C948B000C948B000C948B0014
:100040000C948B000C948B000C948B000C948B0004
:100050000C948B000C948B000C948B000C948B00F4
:100060000C948B000C948B000C948B000C948B00E4
:100070000C948B000C948B000C948B000C948B00D4
:100080000C948B000C948B000C948B000C948B00C4
:100090000C948B000C948B000C948B000C948B00B4
:1000A0000C948B000C948B000C948B000C948B00A4
:1000B0000C948B000C948B000C948B000C948B0094
:1000C0000C948B000C948B000C948B000C948B0084
:1000D0000C948B000C948B000C948B000C948B0074
:1000E0000C948B0011241FBECFEFD1E2DEBFCDBF39
:1000F00000E00CBF12E0A0E0B2E0E0EEFCE000E0C7
:100100000BBF02C007900D92A230B107D9F70E9431
:10011000EB030C946E060C940000CF93DF93CDB7E5
:10012000DEB784E290E0FC01208184E290E0286068
:10013000FC01208384E290E0FC01208184E290E0D5
:100140002E7FFC01208384E290E0FC01208184E288
:1001500090E0206FFC01208385E290E0FC0120818B
:1001600085E290E0206FFC0120830000DF91CF91B9
:1001700008950F931F93CF93DF93CDB7DEB7C45984
:10018000D1090FB6F894DEBF0FBECDBF85E290E077
:10019000DC012C9185E290E02860FC01208380E066
:1001A00090E0A0E2B1E48D839E83AF83B8872BEA11
:1001B0003AEA4AEA50E46D817E818F8198850E94F7
:1001C000010661966CAF7DAF8EAF9FAF6197619670
:1001D0008CAD9DADAEADBFAD619789879A87AB877A
:1001E000BC8720E030E040E850E46D817E818F8163
:1001F00098850E94010665966CAF7DAF8EAF9FAF6C
:10020000659765968CAD9DADAEADBFAD65978D879D
:100210009E87AF87B88B20E030E040E85FE36985D8
:100220007A858B859C850E94E10488231CF481E0FB
:10023000898BFFC020E03FEF4FE757E46D857E8557
:100240008F8598890E94FC05882309F00CF4B6C0BC
:1002500020E030E04AE754E46D817E818F8198850B
:100260000E94E60469966CAF7DAF8EAF9FAF699731
:1002700069968CAD9DADAEADBFAD69978A8B9B8BFA
:10028000AC8BBD8B20E030E04AE755E46A897B897E
:100290008C899D890E9401066D966CAF7DAF8EAFF3
:1002A0009FAF6D976D968CAD9DADAEADBFAD6D97AB
:1002B0008E8B9F8BA88FB98F20E030E040E85FE302
:1002C0006E897F89888D998D0E94E10488232CF4A2
:1002D00081E090E09B8F8A8F66C020E03FEF4FE780
:1002E00057E46E897F89888D998D0E94FC0588234B
:1002F00009F00CF446C020E030E040E251E46A89A5
:100300007B898C899D890E940106A1966CAF7DAF87
:100310008EAF9FAFA197A1968CAD9DADAEADBFAD99
:10032000A19729968CAF9DAFAEAFBFAF2997299605
:100330006CAD7DAD8EAD9FAD29970E945805A596F9
:100340006CAF7DAF8EAF9FAFA597A396AEADBFAD9F
:10035000A397BB8FAA8F10C080E991E09D8F8C8FEF
:100360008C8D9D8D0197F1F79D8F8C8F00008A8D6C
:100370009B8D01979B8F8A8F8A8D9B8D009761F74C
:1003800058C06E897F89888D998D0E945805A996DD
:100390006CAF7DAF8EAF9FAFA997A796EEADFFADC7
:1003A000A797FB8FEA8F8A8D9B8D9F8F8E8F8E8D67
:1003B0009F8D0197F1F79F8F8E8F3BC020E030E03B
:1003C0004FE753E469857A858B859C850E94FC05FF
:1003D0008823F9F0F4F06D857E858F8598890E94D9
:1003E0005805AD966CAF7DAF8EAF9FAFAD97AB9616
:1003F0008EAD9FADAB9799A388A388A199A19BA32C
:100400008AA38AA19BA10197F1F79BA38AA300006D
:1004100017C069857A858B859C850E945805E19671
:100420006CAF7DAF8EAF9FAFE197AE969FADAE97AD
:10043000998B89898CA38CA18A95F1F78CA30000F4
:1004400085E290E0DC012C9185E290E0277FFC01C1
:1004500020831A8219821C821B82000083E290E0B2
:10046000DC018C919FC180E090E0A0E8BFE38DA308
:100470009EA3AFA3B8A72BEA3AEA4AEA50E46DA1DB
:100480007EA18FA198A50E940106E5966CAF7DAF75
:100490008EAF9FAFE597E5968CAD9DADAEADBFAD90
:1004A000E59789A79AA7ABA7BCA720E030E040E872
:1004B00050E46DA17EA18FA198A50E940106E99646
:1004C0006CAF7DAF8EAF9FAFE997E9968CAD9DADD8
:1004D000AEADBFADE9978DA79EA7AFA7B8AB20E0A3
:1004E00030E040E85FE369A57AA58BA59CA50E9452
:1004F000E10488231CF481E089AB2CC120E03FEFAC
:100500004FE757E46DA57EA58FA598A90E94FC052D
:10051000882309F00CF4C6C020E030E04AE754E438
:100520006DA17EA18FA198A50E94E604ED966CAF07
:100530007DAF8EAF9FAFED97ED968CAD9DADAEAD1F
:10054000BFADED978AAB9BABACABBDAB20E030E071
:100550004AE755E46AA97BA98CA99DA90E940106D6
:10056000C358DF4F688379838A839B83CD57D040FC
:10057000C358DF4F88819981AA81BB81CD57D04074
:100580008EAB9FABA8AFB9AF20E030E040E85FE3AF
:100590006EA97FA988AD99AD0E94E10488232CF44F
:1005A00081E090E09BAF8AAF72C020E03FEF4FE761
:1005B00057E46EA97FA988AD99AD0E94FC058823F8
:1005C00009F00CF44EC020E030E040E251E46AA9AA
:1005D0007BA98CA99DA90E940106CF57DF4F688394
:1005E00079838A839B83C158D040CF57DF4F88815E
:1005F0009981AA81BB81C158D0402D968CAF9DAF07
:10060000AEAFBFAF2D972D966CAD7DAD8EAD9FADCE
:100610002D970E945805CB57DF4F688379838A83D3
:100620009B83C558D040CB57DF4FA881B981C558AF
:10063000D040BBAFAAAF10C080E991E09DAF8CAFB6
:100640008CAD9DAD0197F1F79DAF8CAF00008AADE9
:100650009BAD01979BAF8AAF8AAD9BAD009761F7C9
:1006600079C06EA97FA988AD99AD0E945805C7577A
:10067000DF4F688379838A839B83C958D040C757EB
:10068000DF4FE881F981C958D040FBAFEAAF8AADAE
:100690009BAD9FAF8EAF8EAD9FAD0197F1F79FAF32
:1006A0008EAF58C020E030E04FE753E469A57AA54B
:1006B0008BA59CA50E94FC058823C1F1BCF18E018D
:1006C000005C1F4F6DA57EA58FA598A90E945805B7
:1006D000C357DF4F688379838A839B83CD58D0408B
:1006E000C357DF4FE881F981CD58D040D801ED9351
:1006F000FC93CE018E5B9F4F9E01205C3F4FD90142
:100700002D913C91FC0131832083CE018E5B9F4F64
:10071000DC018D919C9111970197F1F79E012E5B61
:100720003F4FF90191838083000028C069A57AA515
:100730008BA59CA50E945805CF56DF4F688379830F
:100740008A839B83C159D040CF56DF4FF881C1596E
:10075000D040F9ABCE018C5B9F4F29A9DC012C93D3
:10076000CE018C5B9F4FFC018081282F2A95F1F7E9
:10077000CE018C5B9F4FDC012C93000089819A8114
:1007800001969A83898380910002909101022981C8
:100790003A812817390731F02CF0809100029091AE
:1007A00001020DC083E290E0FC018081882F90E07F
:1007B00081709927009709F056CE89819A81CC568D
:1007C000DF4F0FB6F894DEBF0FBECDBFDF91CF91E4
:1007D0001F910F910895CF93DF93CDB7DEB7A69702
:1007E0000FB6F894DEBF0FBECDBF0E948D001A82F7
:1007F00019820E94B9009A83898389819A812AE3A8
:1008000030E0B9010E94B904CB019C838B838B81BA
:100810009C818E31910509F054F485E290E0DC0171
:100820002C9185E290E02F7EFC01208309C085E2B7
:1008300090E0DC012C9185E290E02061FC012083B6
:1008400080E090E0A8ECB2E48D839E83AF83B8870C
:1008500020E030E04AE755E46D817E818F81988504
:100860000E9401066F8B788F898F9A8F8F89988D60
:10087000A98DBA8D89879A87AB87BC8720E030E045
:1008800040E85FE369857A858B859C850E94E10459
:1008900088232CF481E090E09E878D8755C020E06E
:1008A0003FEF4FE757E469857A858B859C850E94E9
:1008B000FC058823D9F1D4F120E030E040E251E496
:1008C0006D817E818F8198850E9401066B8F7C8F60
:1008D0008D8F9E8F8B8D9C8DAD8DBE8D8B8B9C8BCC
:1008E000AD8BBE8B6B897C898D899E890E94580552
:1008F0006F8F78A389A39AA3AF8DB8A1BE87AD8768
:1009000010C080E991E0988B8F878F859889019737
:10091000F1F7988B8F8700008D859E8501979E87C4
:100920008D878D859E85009761F719C069857A85C9
:100930008B859C850E9458056BA37CA38DA39EA3E9
:10094000EBA1FCA1FE87ED878D859E859A8B898B17
:1009500089899A890197F1F79A8B898B000085E242
:1009600090E0DC012C9185E290E0206EFC01208378
:100970003ECF97FB072E16F4009407D077FD09D0E1
:100980000E94CD0407FC05D03EF4909581959F4FC1
:100990000895709561957F4F0895AA1BBB1B51E187
:1009A00007C0AA1FBB1FA617B70710F0A61BB70BDF
:1009B000881F991F5A95A9F780959095BC01CD0184
:1009C00008950E94870508F481E008950E94FA04C2
:1009D0000C94C2050E94BB0558F00E94B40540F07B
:1009E00029F45F3F29F00C94AB0551110C94F605E6
:1009F0000C94B1050E94D30568F39923B1F35523F4
:100A000091F3951B550BBB27AA2762177307840721
:100A100038F09F5F5F4F220F331F441FAA1FA9F3B7
:100A200035D00E2E3AF0E0E832D091505040E695A5
:100A3000001CCAF72BD0FE2F29D0660F771F881F06
:100A4000BB1F261737074807AB07B0E809F0BB0BF9
:100A5000802DBF01FF2793585F4F3AF09E3F51050D
:100A600078F00C94AB050C94F6055F3FE4F3983EE8
:100A7000D4F3869577956795B795F7959F5FC9F7F6
:100A8000880F911D9695879597F90895E1E0660F77
:100A9000771F881FBB1F621773078407BA0720F0F0
:100AA000621B730B840BBA0BEE1F88F7E095089559
:100AB0000E94DB0588F09F5798F0B92F9927B7510E
:100AC000B0F0E1F0660F771F881F991F1AF0BA95F2
:100AD000C9F714C0B13091F00E94F505B1E0089556
:100AE0000C94F505672F782F8827B85F39F0B93F48
:100AF000CCF3869577956795B395D9F73EF49095A5
:100B00008095709561957F4F8F4F9F4F0895990FF6
:100B10000008550FAA0BE0E8FEEF16161706E807C7
:100B2000F907C0F012161306E407F50798F0621BE8
:100B3000730B840B950B39F40A2661F0232B242BBD
:100B4000252B21F408950A2609F4A140A6958FEFDC
:100B5000811D811D089597F99F6780E870E060E02E
:100B600008959FEF80EC089500240A941616170646
:100B700018060906089500240A941216130614068E
:100B800005060895092E0394000C11F4882352F0F1
:100B9000BB0F40F4BF2B11F460FF04C06F5F7F4FA9
:100BA0008F4F9F4F089557FD9058440F551F59F090
:100BB0005F3F71F04795880F97FB991F61F09F3F4A
:100BC00079F087950895121613061406551FF2CF73
:100BD0004695F1DF08C0161617061806991FF1CFC3
:100BE00086957105610508940895E894BB276627EA
:100BF0007727CB0197F908950E94870508F48FEFB6
:100C000008950E9414060C94C2050E94B40538F0A1
:100C10000E94BB0520F0952311F00C94AB050C94B9
:100C2000B10511240C94F6050E94D30570F3959F2D
:100C3000C1F3950F50E0551F629FF001729FBB27D3
:100C4000F00DB11D639FAA27F00DB11DAA1F649F6F
:100C50006627B00DA11D661F829F2227B00DA11D22
:100C6000621F739FB00DA11D621F839FA00D611DA8
:100C7000221F749F3327A00D611D231F849F600DC9
:100C8000211D822F762F6A2F11249F5750409AF0F2
:100C9000F1F088234AF0EE0FFF1FBB1F661F771F7E
:100CA000881F91505040A9F79E3F510580F00C9449
:100CB000AB050C94F6055F3FE4F3983ED4F38695BC
:100CC00077956795B795F795E7959F5FC1F7FE2BE9
:100CD000880F911D9695879597F90895F894FFCF01
:020CE000F465B9
:00000001FF
