:100000000C9474000C9480000C9480000C9480007C
:100010000C9480000C9480000C9480000C94800060
:100020000C9480000C9480000C9480000C94800050
:100030000C9480000C9480000C9480000C94800040
:100040000C9480000C9480000C9480000C94800030
:100050000C9480000C9480000C9480000C94800020
:100060000C9480000C9480000C9480000C94800010
:100070000C9480000C9480000C9480000C94800000
:100080000C9480000C9480000C9480000C948000F0
:100090000C9480000C9480000C9480000C948000E0
:1000A0000C9480000C9480000C9480000C948000D0
:1000B0000C9480000C9480000C9480000C948000C0
:1000C0000C9480000C9480000C9480000C948000B0
:1000D0000C9480000C9480000C9480000C948000A0
:1000E0000C9480000C94050111241FBECFEFD1E2C7
:1000F000DEBFCDBF00E00CBF0E94A5000C94D20271
:100100000C940000CF93DF93CDB7DEB784E290E08C
:10011000FC01208184E290E0206FFC01208385E2D5
:1001200090E0FC01208185E290E0206FFC012083BB
:1001300087E290E0FC01208187E290E02370FC01DF
:1001400020830000DF91CF910895CF93DF93CDB747
:10015000DEB7A4970FB6F894DEBF0FBECDBF0E94E6
:1001600082001A82198286E290E0DC018C91882F4D
:1001700090E088709927009729F089819A810196EB
:100180009A83898386E290E0FC018081882F90E049
:1001900080719927009729F089819A8102969A8324
:1001A000898386E290E0DC018C91882F90E0807258
:1001B0009927009729F089819A8104969A838983E7
:1001C00086E290E0FC018081882F90E0807499277E
:1001D000009729F089819A8108969A838983898179
:1001E0009A81092E000CAA0BBB0B0197A109B1093A
:1001F0008D309105A105B10509F038F4FC0188277F
:10020000EC52FD4F8F4F0C94AF0185E290E0DC0182
:100210008C91982F89818295807F8095292F282322
:1002200085E290E0FC01208380E090E0A0E2B1E470
:100230008B839C83AD83BE8320E030E04AE755E4A6
:100240006B817C818D819E810E943D026D8B7E8BB6
:100250008F8B988F8D899E89AF89B88D8F83988772
:10026000A987BA8720E030E040E85FE36F817885B6
:1002700089859A850E94B70188232CF481E090E05B
:100280009C878B8755C020E03FEF4FE757E46F8195
:10029000788589859A850E9438028823D9F1D4F11E
:1002A00020E030E040E251E46B817C818D819E81D1
:1002B0000E943D02698F7A8F8B8F9C8F898D9A8DDA
:1002C000AB8DBC8D898B9A8BAB8BBC8B69897A8902
:1002D0008B899C890E94BC016D8F7E8F8F8F98A324
:1002E000AD8DBE8DBC87AB8710C080E991E09E8745
:1002F0008D878D859E850197F1F79E878D870000FC
:100300008B859C8501979C878B878B859C85009727
:1003100061F719C06F81788589859A850E94BC0133
:1003200069A37AA38BA39CA3E9A1FAA1FC87EB871D
:100330008B859C85988B8F878F8598890197F1F79E
:10034000988B8F87000085E290E0DC012C9185E29C
:1003500090E0206FFC0120831A82198204CFEE0FF7
:10036000FF1F881F8BBF0790F691E02D19940E9404
:10037000EB0108F481E008950E94170288F09F576E
:1003800098F0B92F9927B751B0F0E1F0660F771FB9
:10039000881F991F1AF0BA95C9F714C0B13091F0AF
:1003A0000E943102B1E008950C943102672F782F3A
:1003B0008827B85F39F0B93FCCF386957795679574
:1003C000B395D9F73EF490958095709561957F4FE0
:1003D0008F4F9F4F0895990F0008550FAA0BE0E823
:1003E000FEEF16161706E807F907C0F012161306F7
:1003F000E407F50798F0621B730B840B950B39F437
:100400000A2661F0232B242B252B21F408950A269C
:1004100009F4A140A6958FEF811D811D089557FD18
:100420009058440F551F59F05F3F71F04795880F62
:1004300097FB991F61F09F3F79F0879508951216F9
:1004400013061406551FF2CF4695F1DF08C01616A5
:1004500017061806991FF1CF869571056105089456
:100460000895E894BB2766277727CB0197F908956D
:100470000E94EB0108F48FEF08950E9450020C9443
:10048000C1020E94B30238F00E94BA0220F0952304
:1004900011F00C94AA020C94B00211240C943202B4
:1004A0000E940F0270F3959FC1F3950F50E0551F06
:1004B000629FF001729FBB27F00DB11D639FAA27B9
:1004C000F00DB11DAA1F649F6627B00DA11D661F08
:1004D000829F2227B00DA11D621F739FB00DA11D29
:1004E000621F839FA00D611D221F749F3327A00DE3
:1004F000611D231F849F600D211D822F762F6A2F7F
:1005000011249F5750409AF0F1F088234AF0EE0FE3
:10051000FF1FBB1F661F771F881F91505040A9F710
:100520009E3F510580F00C94AA020C9432025F3F6A
:10053000E4F3983ED4F3869577956795B795F7954C
:10054000E7959F5FC1F7FE2B880F911D96958795C4
:1005500097F9089597F99F6780E870E060E0089543
:100560009FEF80EC089500240A94161617061806CB
:100570000906089500240A941216130614060506A7
:100580000895092E0394000C11F4882352F0BB0F38
:1005900040F4BF2B11F460FF04C06F5F7F4F8F4F9B
:1005A0009F4F0895F894FFCF05010501050105014E
:1005B000050105010501050105010501050105010B
:0405C000050105012B
:00000001FF
