:100000000C9482000C94A3000C94A3000C94A30005
:100010000C94A3000C94A3000C94A3000C94A300D4
:100020000C94A3000C94A3000C94A3000C94A300C4
:100030000C94A3000C94A3000C94A3000C94A300B4
:100040000C94A3000C94A3000C94A3000C94A300A4
:100050000C94A3000C94A3000C94A3000C94A30094
:100060000C94A3000C94A3000C94A3000C94A30084
:100070000C94A3000C94A3000C94A3000C94A30074
:100080000C94A3000C94A3000C94A3000C94A30064
:100090000C94A3000C94A3000C94A3000C94A30054
:1000A0000C94A3000C94A3000C94A3000C94A30044
:1000B0000C94A3000C94A3000C94A3000C94A30034
:1000C0000C94A3000C94A3000C94A3000C94A30024
:1000D0000C94A3000C94A3000C94A3000C94A30014
:1000E0000C94A3000C94BF010C9483010C94920116
:1000F0000C94DD010C94A1010C94EC010C94B00162
:100100000C94CE0111241FBECFEFD1E2DEBFCDBFD4
:1001100000E00CBF12E0A0E0B2E0ECE2F4E000E0AE
:100120000BBF02C007900D92A230B107D9F722E0B1
:10013000A2E0B2E001C01D92A430B207E1F70E9434
:10014000A5000C9406020C940000CF93DF93CDB76A
:10015000DEB70E94B7008091000290910102909357
:100160000302809302020E942C010000FCCFCF9377
:10017000DF93CDB7DEB78AE091E0FC0120818AE011
:1001800091E02860FC01208384E290E0FC01208162
:1001900084E290E02062FC0120838DE290E0FC018B
:1001A00020818DE290E02160FC01208380E890E0D6
:1001B00022E8FC01208381E890E029E1FC01208312
:1001C00080E291E022E8FC01208381E291E029E1D4
:1001D000FC01208388E890E020ED37E0FC013183CA
:1001E000208388E291E020ED37E0FC013183208319
:1001F00086E890E020E23EE4FC013183208386E241
:1002000091E020E23EE4FC013183208383E390E02F
:10021000FC01208183E390E02460FC01208384E3DF
:1002200090E0FC01208184E390E02B7FFC0120839F
:1002300027E230E087E290E0F9012081FC01208391
:1002400021E230E081E290E0F9012081FC0120838D
:100250000000DF91CF910895CF93DF930F920F921B
:10026000CDB7DEB71A82198286E290E0FC01808168
:10027000882F90E080719927009729F089819A81D1
:1002800001969A83898386E290E0FC018081882F21
:1002900090E080749927009729F089819A810296CD
:1002A0009A83898380E290E0FC01808188232CF48A
:1002B00089819A8104969A83898380E290E0FC0187
:1002C0008081882F90E080729927009729F089819A
:1002D0009A8108969A83898389819A81092E000CD4
:1002E000AA0BBB0B0197A109B1098D309105A1059E
:1002F000B10511F008F070C0FC018827E85FFD4FE0
:100300008F4F0C94FE0186E890E020E23EE4FC0171
:100310003183208386E291E020E63AEEFC013183CE
:10032000208366C086E890E020E23EE4FC01318351
:10033000208386E291E020E43CE9FC0131832083C4
:1003400057C086E890E020E23EE4FC013183208340
:1003500086E291E020E335E7FC013183208348C049
:1003600086E890E020E536E4FC013183208386E2D4
:1003700091E020E536E4FC013183208339C086E832
:1003800090E020E335E7FC013183208386E291E0B1
:1003900020E23EE4FC01318320832AC086E890E01D
:1003A00020E43CE9FC013183208386E291E020E2F5
:1003B0003EE4FC01318320831BC086E890E020E608
:1003C0003AEEFC013183208386E291E020E23EE4B4
:1003D000FC01318320830CC026E231E08AE298EFF1
:1003E000F9019183808326E830E0F90191838083CD
:1003F00000000F900F90DF91CF910895EE0FFF1F37
:10040000881F8BBF0790F691E02D1994F894FFCFC9
:100410008301EC019201EC01EC01B001A101DD01CD
:0C042000EC01EC01EC01CE01EC01BF018D
:02042C00204E60
:00000001FF
