:100000000C9472000C9493000C9493000C94930045
:100010000C9493000C9493000C9493000C94930014
:100020000C9493000C9493000C9493000C94930004
:100030000C9493000C9493000C9493000C949300F4
:100040000C9493000C9493000C9493000C949300E4
:100050000C9493000C9493000C9493000C949300D4
:100060000C9493000C9493000C9493000C949300C4
:100070000C9493000C9493000C9493000C949300B4
:100080000C9493000C9493000C9493000C949300A4
:100090000C9493000C9493000C9493000C94930094
:1000A0000C9493000C9493000C9493000C94930084
:1000B0000C9493000C9493000C9493000C94930074
:1000C0000C9493000C9493000C9493000C94930064
:1000D0000C9493000C9493000C9493000C94930054
:1000E0000C94930011241FBECFEFD1E2DEBFCDBF31
:1000F00000E00CBF12E0A0E0B2E0E8EFF3E000E0C7
:100100000BBF02C007900D92A230B107D9F722E0D1
:10011000A2E0B2E001C01D92A430B207E1F70E9454
:1001200095000C94FA010C940000CF93DF93CDB7A7
:10013000DEB70E94A7008091000290910102909387
:100140000302809302020E94D7010000FCCFCF93EC
:10015000DF93CDB7DEB78AE091E0FC0120818AE031
:1001600091E02860FC01208384E290E0FC01208182
:1001700084E290E02062FC0120838DE290E0FC01AB
:1001800020818DE290E02160FC01208380E890E0F6
:1001900022E8FC01208381E890E029E1FC01208332
:1001A00080E291E022E8FC01208381E291E029E1F4
:1001B000FC01208388E890E020ED37E0FC013183EA
:1001C000208388E291E020ED37E0FC013183208339
:1001D00086E890E020E23EE4FC013183208386E261
:1001E00091E020E23EE4FC013183208383E390E050
:1001F000FC01208183E390E02460FC01208384E300
:1002000090E0FC01208184E390E02B7FFC012083BF
:1002100027E230E087E290E0F9012081FC012083B1
:1002200021E230E081E290E0F9012081FC012083AD
:100230000000DF91CF910895CF93DF93CDB7DEB764
:1002400086E290E0FC018081882F90E08170992700
:10025000009751F080910202909103028C599F4FB8
:10026000909303028093020286E290E0FC01808179
:10027000882F90E084709927009749F080910202BE
:1002800090910302C296909303028093020286E249
:1002900090E0FC018081882F90E080719927009781
:1002A00049F080910202909103020A969093030212
:1002B0008093020286E290E0FC018081882F90E02A
:1002C00080749927009749F080910202909103026F
:1002D0000296909303028093020280E290E0FC0178
:1002E0008081882F90E082709927009751F080914B
:1002F0000202909103028456910990930302809325
:10030000020280E290E0FC018081882F90E08870FA
:100310009927009749F08091020290910302C297B9
:10032000909303028093020280E290E0FC018081BE
:10033000882F90E080729927009749F080910202FF
:10034000909103020A97909303028093020280E245
:1003500090E0FC01808188234CF48091020290910E
:1003600003020297909303028093020286E290E0D8
:10037000FC018081882F90E09C012074332780E26B
:1003800090E0FC018081882F90E08078992782237B
:100390009323009741F08091000290910102909385
:1003A0000302809302020000DF91CF910895CF9362
:1003B000DF93CDB7DEB7209102023091030286E8C9
:1003C00090E0FC0131832083809100029091010232
:1003D0009C01220F331F8091020290910302281B7F
:1003E000390B86E291E0FC01318320830000DF912C
:0803F000CF910895F894FFCFAE
:0203F800204E95
:00000001FF
