:100000000C9482000C94A3000C94A3000C94A30005
:100010000C94A3000C94A3000C94A3000C94A300D4
:100020000C94A3000C94A3000C94A3000C94A300C4
:100030000C94A3000C94A3000C94A3000C94A300B4
:100040000C94A3000C94A3000C94A3000C94A300A4
:100050000C94A3000C94A3000C94A3000C94A30094
:100060000C94A3000C94A3000C94A3000C94A30084
:100070000C94A3000C94A3000C94A3000C94A30074
:100080000C94A3000C94A3000C94A3000C94A30064
:100090000C94A3000C94A3000C94A3000C94A30054
:1000A0000C94A3000C94A3000C94A3000C94A30044
:1000B0000C94A3000C94A3000C94A3000C94A30034
:1000C0000C94A3000C94A3000C94A3000C94A30024
:1000D0000C94A3000C94A3000C94A3000C94A30014
:1000E0000C94A3000C94A8020C946C020C948A0249
:1000F0000C94B7020C94D5020C9499020C94C6028D
:100100000C947B0211241FBECFEFD1E2DEBFCDBF26
:1001100000E00CBF12E0A0E0B2E0ECE3FDE000E0A4
:100120000BBF02C007900D92A430B107D9F722E0AF
:10013000A4E0B2E001C01D92A630B207E1F70E9430
:10014000A5000C9490060C940000CF93DF93CDB7DC
:10015000DEB7A2970FB6F894DEBF0FBECDBF80E02A
:1001600090E0AAEFB4E489839A83AB83BC8320E058
:1001700030E04AE755E469817A818B819C810E9455
:1001800023066B8B7C8B8D8B9E8B8B899C89AD8999
:10019000BE898D839E83AF83B88720E030E040E83E
:1001A0005FE36D817E818F8198850E94030588239E
:1001B0002CF481E090E09A87898755C020E03FEFDA
:1001C0004FE757E46D817E818F8198850E941E06DE
:1001D0008823D9F1D4F120E030E040E251E4698194
:1001E0007A818B819C810E9423066F8B788F898F07
:1001F0009A8F8F89988DA98DBA8D8F87988BA98BAF
:10020000BA8B6F85788989899A890E947A056B8F64
:100210007C8F8D8F9E8FAB8DBC8DBA87A98710C0C8
:1002200080E991E09C878B878B859C850197F1F70E
:100230009C878B87000089859A8501979A87898793
:1002400089859A85009761F719C06D817E818F81BC
:1002500098850E947A056F8F78A389A39AA38F8DC2
:1002600098A19A87898789859A859E878D878D85AC
:100270009E850197F1F79E878D8700000E945001AF
:100280000E94E90180910002909101029093050281
:10029000809304020E9415020E9486040000FACF97
:1002A000CF93DF93CDB7DEB78AE091E0FC012081E8
:1002B0008AE091E02860FC01208384E290E0FC0168
:1002C000208184E290E02062FC0120838DE290E0B6
:1002D000FC0120818DE290E02160FC01208380E818
:1002E00090E022E8FC01208381E890E029E1FC0114
:1002F000208380E291E022E8FC01208381E291E00A
:1003000029E1FC01208388E890E020ED37E0FC0142
:100310003183208388E291E020ED37E0FC013183D6
:10032000208386E890E020E23EE4FC0131832083D4
:1003300086E291E020E23EE4FC013183208384E206
:1003400090E0FC01208184E290E02860FC012083A1
:100350008AE091E0FC0120818AE091E02260FC01CA
:10036000208385E290E0FC01208185E290E0277FF8
:10037000FC0120838BE091E0FC0120818BE091E087
:100380002D7FFC01208383E390E0FC01208183E347
:1003900090E02460FC01208384E390E0FC01208154
:1003A00084E390E02B7FFC01208327E230E087E2AA
:1003B00090E0F9012081FC01208321E230E081E21C
:1003C00090E0F9012081FC0120830000DF91CF91B2
:1003D0000895CF93DF93CDB7DEB784E290E0FC01C0
:1003E000208184E290E02460FC01208384E290E09C
:1003F000FC01208184E290E02E7FFC0120838AE0D2
:1004000091E0FC0120818AE091E02160FC012083E1
:100410008BE091E0FC0120818BE091E02160FC0108
:1004200020830000DF91CF910895CF93DF930F9247
:100430000F92CDB7DEB71A82198286E290E0FC01F6
:100440008081882F90E080719927009729F0898119
:100450009A8101969A83898386E290E0FC018081EB
:10046000882F90E080749927009729F089819A81DC
:1004700002969A83898380E290E0FC018081882340
:100480002CF489819A8104969A83898380E290E092
:10049000FC018081882F90E080729927009729F0D5
:1004A00089819A8108969A83898389819A81092E04
:1004B000000CAA0BBB0B0197A109B1098B30910568
:1004C000A105B10511F008F070C0FC018827EE56B7
:1004D000F94F8F4F0C94E70486E890E020E23EE469
:1004E000FC013183208386E291E020E63AEEFC01B4
:1004F0003183208366C086E890E020E23EE4FC0180
:100500003183208386E291E020E43CE9FC013183E1
:10051000208357C086E890E020E23EE4FC0131836E
:10052000208386E291E020E335E7FC0131832083DC
:1005300048C086E890E020E23EE4FC01318320835D
:1005400086E291E020E23EE4FC013183208339C061
:1005500086E890E020E335E7FC013183208386E2E2
:1005600091E020E23EE4FC01318320832AC086E84A
:1005700090E020E43CE9FC013183208386E291E0B5
:1005800020E23EE4FC01318320831BC086E890E03A
:1005900020E63AEEFC013183208386E291E020E2FE
:1005A0003EE4FC01318320830CC026E231E08AE284
:1005B00098EFF9019183808326E830E0F901918377
:1005C000808300000F900F90DF91CF910895CF931B
:1005D000DF93CDB7DEB7CC54D1090FB6F894DEBFA8
:1005E0000FBECDBF1A8219821C821B8285E290E069
:1005F000DC012C9185E290E02460FC01208380E006
:1006000090E0A0E2B1E48D839E83AF83B8872BEAAC
:100610003AEA4AEA50E46D817E818F8198850E9492
:10062000230669A77AA78BA79CA789A59AA5ABA53E
:10063000BCA589879A87AB87BC8720E030E040E87B
:1006400050E46D817E818F8198850E9423066DA77D
:100650007EA78FA798AB8DA59EA5AFA5B8A98D87BE
:100660009E87AF87B88B20E030E040E85FE3698584
:100670007A858B859C850E94030588231CF481E084
:10068000898BEDC020E03FEF4FE757E46D857E8515
:100690008F8598890E941E06882309F00CF4A4C057
:1006A00020E030E04AE754E46D817E818F819885B7
:1006B0000E94080569AB7AAB8BAB9CAB89A99AA960
:1006C000ABA9BCA98A8B9B8BAC8BBD8B20E030E0A7
:1006D0004AE755E46A897B898C899D890E942306B3
:1006E0006DAB7EAB8FAB98AF8DA99EA9AFA9B8AD0E
:1006F0008E8B9F8BA88FB98F20E030E040E85FE3BE
:100700006E897F89888D998D0E94030588232CF43A
:1007100081E090E09B8F8A8F5CC020E03FEF4FE745
:1007200057E46E897F89888D998D0E941E068823E3
:1007300009F00CF43CC020E030E040E251E46A896A
:100740007B898C899D890E94230669AF7AAF8BAF24
:100750009CAF89AD9AADABADBCAD8DA39EA3AFA34D
:10076000B8A76DA17EA18FA198A50E947A052196B8
:100770006CAF7DAF8EAF9FAF2197ADADBEADBB8FE0
:10078000AA8F10C080E991E09D8F8C8F8C8D9D8DFC
:100790000197F1F79D8F8C8F00008A8D9B8D0197BB
:1007A0009B8F8A8F8A8D9B8D009761F758C06E89C9
:1007B0007F89888D998D0E947A0525966CAF7DAFD3
:1007C0008EAF9FAF25972396EEADFFAD2397FB8F9E
:1007D000EA8F8A8D9B8D9F8F8E8F8E8D9F8D019737
:1007E000F1F79F8F8E8F3BC020E030E04FE753E45E
:1007F00069857A858B859C850E941E068823F9F081
:10080000F4F06D857E858F8598890E947A052996FA
:100810006CAF7DAF8EAF9FAF299727968EAD9FAD02
:10082000279799A388A388A199A19BA38AA38AA1AA
:100830009BA10197F1F79BA38AA3000017C06985CC
:100840007A858B859C850E947A052D966CAF7DAF4D
:100850008EAF9FAF2D972A969FAD2A97998B898946
:100860008CA38CA18A95F1F78CA3000085E290E01F
:10087000DC012C9185E290E02B7FFC0120832FC0CE
:1008800083E290E0DC018C91882F90E081709927C1
:100890008130910541F489819A81009721F481E0AA
:1008A00090E09A83898389819A81009729F08B81CE
:1008B0009C8101969C838B8383E290E0FC01808184
:1008C000882F90E081709927009749F489819A8157
:1008D000009729F01A8219828B819C810DC080912A
:1008E0000202909103022B813C812817390744F2C0
:1008F0008091020290910302C45BDF4F0FB6F8941F
:10090000DEBF0FBECDBFDF91CF910895CF93DF93B0
:1009100000D00F92CDB7DEB7809102029091030212
:100920009A8389830E94E7029A83898389819A81C5
:100930002AE330E0B9010E94D304CB019C838B836E
:100940008B819C818930910509F09CF485E290E0CF
:10095000FC01208185E290E02860FC0120838BE08F
:1009600091E0FC0120818BE091E02260FC0120837A
:1009700012C085E290E0FC01208185E290E0277FB3
:10098000FC0120838BE091E0FC0120818BE091E071
:100990002D7FFC01208300000F900F900F900F908F
:1009A000DF91CF91089597FB072E16F4009407D09E
:1009B00077FD09D00E94EF0407FC05D03EF4909526
:1009C00081959F4F0895709561957F4F0895EE0F23
:1009D000FF1F881F8BBF0790F691E02D1994AA1B6B
:1009E000BB1B51E107C0AA1FBB1FA617B70710F01A
:1009F000A61BB70B881F991F5A95A9F7809590954C
:100A0000BC01CD0108950E94A90508F481E0089574
:100A10000E941C050C94E4050E94DD0558F00E941C
:100A2000D60540F029F45F3F29F00C94CD05511113
:100A30000C9418060C94D3050E94F50568F39923CD
:100A4000B1F3552391F3951B550BBB27AA276217CA
:100A50007307840738F09F5F5F4F220F331F441FD7
:100A6000AA1FA9F335D00E2E3AF0E0E832D091500B
:100A70005040E695001CCAF72BD0FE2F29D0660FF8
:100A8000771F881FBB1F261737074807AB07B0E83B
:100A900009F0BB0B802DBF01FF2793585F4F3AF041
:100AA0009E3F510578F00C94CD050C9418065F3FDD
:100AB000E4F3983ED4F3869577956795B795F795C7
:100AC0009F5FC9F7880F911D9695879597F90895AF
:100AD000E1E0660F771F881FBB1F6217730784074B
:100AE000BA0720F0621B730B840BBA0BEE1F88F75A
:100AF000E09508950E94FD0588F09F5798F0B92F62
:100B00009927B751B0F0E1F0660F771F881F991F42
:100B10001AF0BA95C9F714C0B13091F00E941706C7
:100B2000B1E008950C941706672F782F8827B85FD7
:100B300039F0B93FCCF3869577956795B395D9F79A
:100B40003EF490958095709561957F4F8F4F9F4FA4
:100B50000895990F0008550FAA0BE0E8FEEF16164E
:100B60001706E807F907C0F012161306E407F507A1
:100B700098F0621B730B840B950B39F40A2661F015
:100B8000232B242B252B21F408950A2609F4A140B8
:100B9000A6958FEF811D811D089597F99F6780E8C5
:100BA00070E060E008959FEF80EC089500240A94BF
:100BB0001616170618060906089500240A94121638
:100BC0001306140605060895092E0394000C11F46B
:100BD000882352F0BB0F40F4BF2B11F460FF04C018
:100BE0006F5F7F4F8F4F9F4F089557FD9058440F71
:100BF000551F59F05F3F71F04795880F97FB991F7C
:100C000061F09F3F79F08795089512161306140638
:100C1000551FF2CF4695F1DF08C0161617061806C5
:100C2000991FF1CF86957105610508940895E894A0
:100C3000BB2766277727CB0197F908950E94A9055E
:100C400008F48FEF08950E9436060C94E4050E9484
:100C5000D60538F00E94DD0520F0952311F00C94A4
:100C6000CD050C94D30511240C9418060E94F505AB
:100C700070F3959FC1F3950F50E0551F629FF001EF
:100C8000729FBB27F00DB11D639FAA27F00DB11D08
:100C9000AA1F649F6627B00DA11D661F829F222791
:100CA000B00DA11D621F739FB00DA11D621F839F18
:100CB000A00D611D221F749F3327A00D611D231FEE
:100CC000849F600D211D822F762F6A2F11249F573C
:100CD00050409AF0F1F088234AF0EE0FFF1FBB1F3F
:100CE000661F771F881F91505040A9F79E3F5105FE
:100CF00080F00C94CD050C9418065F3FE4F3983E09
:100D0000D4F3869577956795B795F795E7959F5FA7
:100D1000C1F7FE2B880F911D9695879597F9089539
:100D2000F894FFCF6C028A027B02A802D5029902D6
:0C0D3000D502C602D502D502D502B702DA
:040D3C00204E080736
:00000001FF
