:100000000C9472000C9493000C9493000C94930045
:100010000C9493000C9493000C9493000C94930014
:100020000C9493000C9493000C9493000C94930004
:100030000C9493000C9493000C9493000C949300F4
:100040000C9493000C94D3050C94FB050C94930032
:100050000C9499050C9493000C9493000C949300C9
:100060000C9493000C9493000C9493000C949300C4
:100070000C9493000C9493000C9493000C949300B4
:100080000C9493000C9493000C9493000C949300A4
:100090000C9493000C9493000C9493000C94930094
:1000A0000C9493000C9493000C9493000C94930084
:1000B0000C9493000C9493000C9493000C94930074
:1000C0000C9493000C9493000C9493000C94930064
:1000D0000C9493000C9493000C9493000C94930054
:1000E0000C94930011241FBECFEFD1E2DEBFCDBF31
:1000F00000E00CBF12E0A0E0B2E0E4E4F3E100E0D5
:100100000BBF02C007900D92A430B107D9F722E0CF
:10011000A4E0B2E001C01D92A630B207E1F70E9450
:1001200095000C94A0090C940000CF93DF93CDB7F9
:10013000DEB70E94A9000E9410010E9423060E94BF
:100140003C010E9494040E94CB040E9476050000AA
:10015000F6CFCF93DF93CDB7DEB78AE091E0FC0115
:1001600020818AE091E02860FC01208384E290E015
:10017000FC01208184E290E02062FC0120838DE27A
:1001800090E0FC0120818DE290E02160FC01208361
:1001900080E890E022E8FC01208381E890E029E1FA
:1001A000FC01208380E291E022E8FC01208381E2CF
:1001B00091E029E1FC01208388E890E020ED37E020
:1001C000FC013183208388E291E020ED37E0FC01DF
:1001D0003183208383E390E0FC01208183E390E07E
:1001E0002460FC01208384E390E0FC01208184E30F
:1001F00090E02B7FFC01208327E230E087E290E053
:10020000F9012081FC01208321E230E081E290E0CD
:10021000F9012081FC0120830000DF91CF91089536
:10022000CF93DF93CDB7DEB784E290E0FC0120816D
:1002300084E290E02460FC01208384E290E0FC01F1
:10024000208184E290E02E7FFC0120838AE091E00F
:10025000FC0120818AE091E02160FC0120838BE099
:1002600091E0FC0120818BE091E02160FC01208382
:100270000000DF91CF910895CF93DF93CDB7DEB724
:100280008EE290E0FC0120818EE290E02160FC0192
:100290002083F6CF0F931F93CF93DF93CDB7DEB7B5
:1002A000C459D1090FB6F894DEBF0FBECDBF85E2A9
:1002B00090E0DC012C9185E290E02460FC01208339
:1002C00080E090E0A0E2B1E48D839E83AF83B887A5
:1002D0002BEA3AEA4AEA50E46D817E818F81988563
:1002E0000E94330961966CAF7DAF8EAF9FAF61976F
:1002F00061968CAD9DADAEADBFAD619789879A8794
:10030000AB87BC8720E030E040E850E46D817E811F
:100310008F8198850E94330965966CAF7DAF8EAF53
:100320009FAF659765968CAD9DADAEADBFAD659742
:100330008D879E87AF87B88B20E030E040E85FE391
:1003400069857A858B859C850E94D60788231CF455
:1003500081E0898BFFC020E03FEF4FE757E46D85D8
:100360007E858F8598890E942E09882309F00CF4D8
:10037000B6C020E030E04AE754E46D817E818F8191
:1003800098850E94DB0769966CAF7DAF8EAF9FAFFB
:10039000699769968CAD9DADAEADBFAD69978A8BFF
:1003A0009B8BAC8BBD8B20E030E04AE755E46A893B
:1003B0007B898C899D890E9433096D966CAF7DAFD6
:1003C0008EAF9FAF6D976D968CAD9DADAEADBFAD51
:1003D0006D978E8B9F8BA88FB98F20E030E040E81F
:1003E0005FE36E897F89888D998D0E94D607882367
:1003F0002CF481E090E09B8F8A8F66C020E03FEF75
:100400004FE757E46E897F89888D998D0E942E0968
:10041000882309F00CF446C020E030E040E251E4CB
:100420006A897B898C899D890E943309A1966CAF6A
:100430007DAF8EAF9FAFA197A1968CAD9DADAEADB8
:10044000BFADA19729968CAF9DAFAEAFBFAF299737
:1004500029966CAD7DAD8EAD9FAD29970E944D085C
:10046000A5966CAF7DAF8EAF9FAFA597A396AEADAF
:10047000BFADA397BB8FAA8F10C080E991E09D8F7D
:100480008C8F8C8D9D8D0197F1F79D8F8C8F000047
:100490008A8D9B8D01979B8F8A8F8A8D9B8D00976C
:1004A00061F758C06E897F89888D998D0E944D08AB
:1004B000A9966CAF7DAF8EAF9FAFA997A796EEAD13
:1004C000FFADA797FB8FEA8F8A8D9B8D9F8F8E8FB5
:1004D0008E8D9F8D0197F1F79F8F8E8F3BC020E00F
:1004E00030E04FE753E469857A858B859C850E94CF
:1004F0002E098823F9F0F4F06D857E858F85988923
:100500000E944D08AD966CAF7DAF8EAF9FAFAD979B
:10051000AB968EAD9FADAB9799A388A388A199A107
:100520009BA38AA38AA19BA10197F1F79BA38AA30E
:10053000000017C069857A858B859C850E944D08CF
:10054000E1966CAF7DAF8EAF9FAFE197AE969FAD5A
:10055000AE97998B89898CA38CA18A95F1F78CA38E
:10056000000085E290E0DC012C9185E290E02B7F99
:10057000FC0120831A8219821C821B821A82198232
:10058000B9C180E090E0A0E8BFE38DA39EA3AFA334
:10059000B8A72BEA3AEA4AEA50E46DA17EA18FA1FE
:1005A00098A50E943309E5966CAF7DAF8EAF9FAFE3
:1005B000E597E5968CAD9DADAEADBFADE59789A74E
:1005C0009AA7ABA7BCA720E030E040E850E46DA1BB
:1005D0007EA18FA198A50E943309E9966CAF7DAFEB
:1005E0008EAF9FAFE997E9968CAD9DADAEADBFAD37
:1005F000E9978DA79EA7AFA7B8AB20E030E040E811
:100600005FE369A57AA58BA59CA50E94D6078823E0
:100610001CF481E089AB2CC120E03FEF4FE757E4A9
:100620006DA57EA58FA598A90E942E09882309F0A3
:100630000CF4C6C020E030E04AE754E46DA17EA18E
:100640008FA198A50E94DB07ED966CAF7DAF8EAFB2
:100650009FAFED97ED968CAD9DADAEADBFADED9777
:100660008AAB9BABACABBDAB20E030E04AE755E4D6
:100670006AA97BA98CA99DA90E943309C358DF4FA1
:10068000688379838A839B83CD57D040C358DF4FDB
:1006900088819981AA81BB81CD57D0408EAB9FAB19
:1006A000A8AFB9AF20E030E040E85FE36EA97FA9D2
:1006B00088AD99AD0E94D60788232CF481E090E0A4
:1006C0009BAF8AAF72C020E03FEF4FE757E46EA9BF
:1006D0007FA988AD99AD0E942E09882309F00CF4FA
:1006E0004EC020E030E040E251E46AA97BA98CA929
:1006F0009DA90E943309CF57DF4F688379838A838E
:100700009B83C158D040CF57DF4F88819981AA8100
:10071000BB81C158D0402D968CAF9DAFAEAFBFAF5F
:100720002D972D966CAD7DAD8EAD9FAD2D970E9412
:100730004D08CB57DF4F688379838A839B83C558E5
:10074000D040CB57DF4FA881B981C558D040BBAF4F
:10075000AAAF10C080E991E09DAF8CAF8CAD9DAD8C
:100760000197F1F79DAF8CAF00008AAD9BAD01976B
:100770009BAF8AAF8AAD9BAD009761F779C06EA938
:100780007FA988AD99AD0E944D08C757DF4F688398
:1007900079838A839B83C958D040C757DF4FE8814C
:1007A000F981C958D040FBAFEAAF8AAD9BAD9FAF8E
:1007B0008EAF8EAD9FAD0197F1F79FAF8EAF58C052
:1007C00020E030E04FE753E469A57AA58BA59CA50E
:1007D0000E942E098823C1F1BCF18E01005C1F4FDD
:1007E0006DA57EA58FA598A90E944D08C357DF4F20
:1007F000688379838A839B83CD58D040C357DF4F6A
:10080000E881F981CD58D040D801ED93FC93CE0119
:100810008E5B9F4F9E01205C3F4FD9012D913C91F3
:10082000FC0131832083CE018E5B9F4FDC018D91D3
:100830009C9111970197F1F79E012E5B3F4FF901B3
:1008400091838083000028C069A57AA58BA59CA50B
:100850000E944D08CF56DF4F688379838A839B833C
:10086000C159D040CF56DF4FF881C159D040F9ABC4
:10087000CE018C5B9F4F29A9DC012C93CE018C5BB0
:100880009F4FFC018081282F2A95F1F7CE018C5BC8
:100890009F4FDC012C93000083E290E0FC018081FB
:1008A000882F90E081709927009741F08B819C817F
:1008B000009721F481E090E09C838B838B819C8165
:1008C000009729F089819A8101969A83898383E22E
:1008D00090E0DC018C91882F90E08170992700973F
:1008E00049F48B819C81009729F01C821B828981AD
:1008F0009A810EC0809100029091010229813A8173
:10090000281739070CF43DCE809100029091010226
:10091000CC56DF4F0FB6F894DEBF0FBECDBFDF91D0
:10092000CF911F910F910895CF93DF9300D00F9235
:10093000CDB7DEB71A8219820E944A019A83898351
:1009400089819A812AE330E0B9010E944107CB01F5
:100950009C838B838B819C818D31910509F054F4AC
:100960008EE290E0FC0120818EE290E02160FC01AB
:10097000208309C08EE290E0FC0120818EE290E0AD
:100980002E7FFC01208300000F900F900F900F909E
:10099000DF91CF910895CF93DF930F920F92CDB750
:1009A000DEB780910202909103029A83898386E2E6
:1009B00090E0FC018081882F90E08170992700975A
:1009C00031F089819A8188519C4F9A83898386E28C
:1009D00090E0FC018081882F90E084709927009737
:1009E00031F089819A818C509E4F9A83898386E267
:1009F00090E0FC018081882F90E08071992700971A
:100A000031F089819A818C599F4F9A83898386E23C
:100A100090E0FC018081882F90E0807499270097F6
:100A200029F089819A8144969A83898380E290E0B3
:100A3000FC018081882F90E081709927009731F028
:100A400089819A81885E93409A83898380E290E0CD
:100A5000FC018081882F90E084709927009731F005
:100A600089819A81845F91409A83898380E290E0B2
:100A7000FC018081882F90E080719927009731F0E8
:100A800089819A81845691099A83898380E290E0D2
:100A9000FC018081882F90E080749927009729F0CD
:100AA00089819A8144979A83898386E290E0FC0148
:100AB0008081882F90E09C012074332780E290E0B1
:100AC000FC018081882F90E08170992782239323F5
:100AD000009731F080910202909103029A838983FA
:100AE00000000F900F90DF91CF910895CF93DF9387
:100AF000CDB7DEB7209104023091050286E890E080
:100B0000FC013183208380910202909103029C01B9
:100B1000220F331F8091040290910502281B390B8C
:100B200086E291E0FC01318320830000DF91CF91C8
:100B300008951F920F920FB60F9211240BB60F92C9
:100B40002F933F938F939F93EF93FF93CF93DF93D5
:100B5000CDB7DEB784E890E024E234E6FC013183CF
:100B600020838EE290E0FC0120818EE290E02860FC
:100B7000FC01208382E091E0FC01208182E091E091
:100B80002860FC0120830000DF91CF91FF91EF915D
:100B90009F918F913F912F910F900BBE0F900FBEA1
:100BA0000F901F9018951F920F920FB60F9211245D
:100BB0000BB60F922F938F939F93EF93FF93CF9347
:100BC000DF93CDB7DEB78EE290E0FC0120818EE2AC
:100BD00090E0277FFC0120830000DF91CF91FF91FF
:100BE000EF919F918F912F910F900BBE0F900FBEA1
:100BF0000F901F9018951F920F920FB60F9211240D
:100C00000BB60F922F938F939F93EF93FF93CF93F6
:100C1000DF93CDB7DEB782E091E0FC01208182E076
:100C200091E0277FFC0120830000DF91CF91FF91AD
:100C3000EF919F918F912F910F900BBE0F900FBE50
:100C40000F901F901895CF93DF93CDB7DEB78DE24D
:100C500090E0FC0120818DE290E02860FC0120837F
:100C600081E091E0FC01208181E091E02860FC01BD
:100C7000208380E890E0FC01108281E890E022E08F
:100C8000FC0120838FE690E027E0FC01208384E8CC
:100C900090E024E234E6FC013183208380E00E946E
:100CA000590680E00E94CD0678940000DF91CF9134
:100CB00008950F931F93CF93DF93CDB7DEB76D9752
:100CC0000FB6F894DEBF0FBECDBF898389818C3902
:100CD0000CF457C08981843611F00CF052C0898120
:100CE000282F880F330B440B550B2E873F87488BDB
:100CF000598B6E857F85888999890E947E086A83D1
:100D00007B838C839D8320E030E040E251E46A8164
:100D10007B818C819D810E9433096A8B7B8B8C8BBC
:100D20009D8B8A899B89AC89BD898E839F83A88787
:100D3000B98720E038EB4FED56E46E817F818885DE
:100D400099850E946A076E8B7F8B888F998F2E8979
:100D50003F89488D598D2A873B874C875D8708E8F6
:100D600010E06A857B858C859D850E944D086A8F81
:100D70007B8F8C8F9D8F8A8D9B8DD80111969C9334
:100D80008E9300006D960FB6F894DEBF0FBECDBFF8
:100D9000DF91CF911F910F9108950F931F93CF93E0
:100DA000DF93CDB7DEB76D970FB6F894DEBF0FBEF9
:100DB000CDBF898389818C390CF457C089818436F1
:100DC00011F00CF052C08981282F880F330B440B8F
:100DD000550B2E873F87488B598B6E857F85888979
:100DE00099890E947E086A837B838C839D8320E09F
:100DF00030E040E251E46A817B818C819D810E94D8
:100E000033096A8B7B8B8C8B9D8B8A899B89AC8900
:100E1000BD898E839F83A887B98720E038EB4FED8B
:100E200056E46E817F81888599850E946A076E8B62
:100E30007F8B888F998F2E893F89488D598D2A877E
:100E40003B874C875D870AE810E06A857B858C8547
:100E50009D850E944D086A8F7B8F8C8F9D8F8A8D18
:100E60009B8DD80111969C938E9300006D960FB6C2
:100E7000F894DEBF0FBECDBFDF91CF911F910F91D0
:100E8000089597FB072E16F4009407D077FD09D03C
:100E90000E94550707FC05D03EF4909581959F4F21
:100EA0000895709561957F4F0895AA1BBB1B51E172
:100EB00007C0AA1FBB1FA617B70710F0A61BB70BCA
:100EC000881F991F5A95A9F780959095BC01CD016F
:100ED00008955058BB27AA270E9481070C94F40854
:100EE0000E94E60838F00E94ED0820F039F49F3F98
:100EF00019F426F40C94E3080EF4E095E7FB0C9447
:100F0000DD08E92F0E94050958F3BA176207730735
:100F10008407950720F079F4A6F50C9427090EF4C0
:100F2000E0950B2EBA2FA02D0B01B90190010C01F9
:100F3000CA01A0011124FF27591B99F0593F50F411
:100F4000503E68F11A16F040A22F232F342F442769
:100F5000585FF3CF469537952795A795F040539561
:100F6000C9F77EF41F16BA0B620B730B840BBAF031
:100F70009150A1F0FF0FBB1F661F771F881FC2F79C
:100F80000EC0BA0F621F731F841F48F487957795B0
:100F90006795B795F7959E3F08F0B0CF9395880F6A
:100FA00008F09927EE0F9795879508950E94B90844
:100FB00008F481E008950E94EF070C94F4080E9461
:100FC000ED0858F00E94E60840F029F45F3F29F050
:100FD0000C94DD0851110C9428090C94E3080E942C
:100FE000050968F39923B1F3552391F3951B550B2C
:100FF000BB27AA2762177307840738F09F5F5F4FEC
:10100000220F331F441FAA1FA9F335D00E2E3AF02A
:10101000E0E832D091505040E695001CCAF72BD042
:10102000FE2F29D0660F771F881FBB1F2617370793
:101030004807AB07B0E809F0BB0B802DBF01FF27C5
:1010400093585F4F3AF09E3F510578F00C94DD08BD
:101050000C9428095F3FE4F3983ED4F38695779586
:101060006795B795F7959F5FC9F7880F911D96957E
:10107000879597F90895E1E0660F771F881FBB1FDA
:10108000621773078407BA0720F0621B730B840B87
:10109000BA0BEE1F88F7E09508950E940D0988F0BD
:1010A0009F5798F0B92F9927B751B0F0E1F0660F2C
:1010B000771F881F991F1AF0BA95C9F714C0B1306D
:1010C00091F00E942709B1E008950C942709672F39
:1010D000782F8827B85F39F0B93FCCF3869577959C
:1010E0006795B395D9F73EF4909580957095619585
:1010F0007F4F8F4F9F4F0895E89409C097FB3EF4B0
:1011000090958095709561957F4F8F4F9F4F992354
:10111000A9F0F92F96E9BB279395F69587957795D2
:101120006795B795F111F8CFFAF4BB0F11F460FF92
:101130001BC06F5F7F4F8F4F9F4F16C0882311F0EA
:1011400096E911C0772321F09EE8872F762F05C0FE
:10115000662371F096E8862F70E060E02AF09A9599
:10116000660F771F881FDAF7880F9695879597F98E
:101170000895990F0008550FAA0BE0E8FEEF161628
:101180001706E807F907C0F012161306E407F5077B
:1011900098F0621B730B840B950B39F40A2661F0EF
:1011A000232B242B252B21F408950A2609F4A14092
:1011B000A6958FEF811D811D089597F99F6780E89F
:1011C00070E060E008959FEF80EC089500240A9499
:1011D0001616170618060906089500240A94121612
:1011E0001306140605060895092E0394000C11F445
:1011F000882352F0BB0F40F4BF2B11F460FF04C0F2
:101200006F5F7F4F8F4F9F4F089557FD9058440F4A
:10121000551F59F05F3F71F04795880F97FB991F55
:1012200061F09F3F79F08795089512161306140612
:10123000551FF2CF4695F1DF08C01616170618069F
:10124000991FF1CF86957105610508940895E8947A
:10125000BB2766277727CB0197F908950E94B90825
:1012600008F48FEF08950E9446090C94F4080E9438
:10127000E60838F00E94ED0820F0952311F00C9458
:10128000DD080C94E30811240C9428090E94050938
:1012900070F3959FC1F3950F50E0551F629FF001C9
:1012A000729FBB27F00DB11D639FAA27F00DB11DE2
:1012B000AA1F649F6627B00DA11D661F829F22276B
:1012C000B00DA11D621F739FB00DA11D621F839FF2
:1012D000A00D611D221F749F3327A00D611D231FC8
:1012E000849F600D211D822F762F6A2F11249F5716
:1012F00050409AF0F1F088234AF0EE0FFF1FBB1F19
:10130000661F771F881F91505040A9F79E3F5105D7
:1013100080F00C94DD080C9428095F3FE4F3983EBC
:10132000D4F3869577956795B795F795E7959F5F81
:10133000C1F7FE2B880F911D9695879597F9089513
:04134000F894FFCF4F
:04134400F465204EDE
:00000001FF
